:100000000C9434000C9446000C9446000C940105AA
:100010000C9439050C9446000C9446000C94460050
:100020000C9446000C9446000C9446000C945C0022
:100030000C9446000C9446000C9446000C94460028
:100040000C9446000C9446000C9495090C944600C0
:100050000C94CC090C9473000C9446000C9446004C
:100060000C9446000C94460011241FBECFEFD4E040
:10007000DEBFCDBF13E0A0E0B1E001C01D92A43F00
:10008000B107E1F70E9439040C94910D0C94000023
:1000900010924301109236011092350182E0809354
:1000A0006F008AE08093810080ED97E09093890053
:1000B000809388003B9A08951F920F920FB60F927B
:1000C00011248F939F93809143018F5F809343010D
:1000D00088B198E0892788B99F918F910F900FBEC2
:1000E0000F901F9018951F920F920FB60F92112428
:1000F0002F933F938F939F93EF93FF93E091490149
:10010000F0E08091780090917900392F20E090E024
:10011000822B932BEE0FFF1FEF5AFE4F91838083AC
:10012000809149018F5F8093490180914901882323
:1001300011F010924901E0914901F0E0E65BFE4FB9
:10014000808180937C0080917A00806480937A0023
:10015000FF91EF919F918F913F912F910F900FBE43
:100160000F901F9018951092490110924A01EAE7EA
:10017000F0E080E880838081876080838081886070
:100180008083A0914901B0E0A65BBE4F8C91809323
:100190007C0080818064808308958091FC0190912F
:1001A000FD01009741F5809155019091560100970E
:1001B00011F580915001882379F420914501309107
:1001C000460180914701909148012817390798F41A
:1001D00081E0809350010895813069F420914501B8
:1001E00030914601809147019091480128173907C5
:1001F00010F010925001089580913A01882331F057
:100200008130F1F410923A01289A0895209140012A
:100210002F5F2093400180913F0182172CF0289896
:1002200081E080933A010895332727FD309599277F
:1002300087FD909504968217930714F4109240015D
:100240000895209A1092400181E080933F0110921E
:100250003A01089589B180788093390108955F9AB1
:100260000E942A0108950E94D80A8FEF9FEF909371
:1002700054018093530184E28093500380E580937E
:10028000510386E48093520382E48093530388E40D
:100290008093540389E4809355038CE28093560342
:1002A00091E3909357038093580322E320935903DB
:1002B00080935A0390935B0380935C0380910001C9
:1002C000805D80935D038EE090E09093F1038093D6
:1002D000F0030E944F0C83E58093540384E58093E0
:1002E000550387E090E09093F1038093F003109220
:1002F0003B0110923C0110923D0110923E01109280
:100300004B0110924C0110924D0110924E01089534
:100310004F925F926F927F928F929F92AF92BF9215
:10032000CF92DF92EF92FF920F931F93CF93DF93C1
:100330008091AF02833409F043C08091B0028435CC
:1003400001F5109254011092530185E090E09093D2
:100350004D0380934C030E94E90A9093FD01809322
:10036000FC0180914C0390914D032FEF8F3F92073A
:1003700009F4E2C00E94E90A909356018093550166
:10038000DBC0803509F0D8C085E090E090934D0344
:1003900080934C030E94E90A9093380180933701BF
:1003A00080914C0390914D033FEF8F3F930709F4E9
:1003B000C3C00E94E90A9093420180934101BCC0EE
:1003C000833591F48091B002803509F0B5C085E0A5
:1003D00090E090934D0380934C030E94E90A909320
:1003E000480180934701A8C0873509F0A5C08091D6
:1003F000B002803509F0A0C085E090E090934D03F5
:1004000080934C030E94E90A8093AF01813009F088
:1004100093C00E94E90ABC019093B3018093B2019A
:1004200088EE93E00E94D40C7093B1016093B00108
:1004300080914C0390914D036FEF8F3F960709F425
:100440007BC00E94E90A2C0180914C0390914D03DE
:100450007FEF8F3F970709F46FC00E94E90AEC0114
:1004600080914C0390914D03EFEF8F3F9E0709F46D
:1004700063C00E94E90A6C0180914C0390914D0386
:10048000FFEF8F3F9F0709F457C00E94E90A4C0114
:1004900080914C0390914D032FEF8F3F920709F409
:1004A0004BC00E94E90A21E020934F016DB77EB74F
:1004B000685070400FB6F8947EBF0FBE6DBFE090DD
:1004C000B201F090B3010027F7FC0095102F9E01B8
:1004D000442737FD4095542FF6015F01CC24B7FC2B
:1004E000C094DC2CB4013B01882477FC8094982CC8
:1004F000AA2797FDA095BA2FEDB7FEB78183928307
:10050000A383B483C201AA2797FDA095BA2F858340
:100510009683A783B087C801B7018601750164017E
:1005200053010E9471052DB73EB7285F3F4F0FB6AC
:10053000F8943EBF0FBE2DBFDF91CF911F910F9159
:10054000FF90EF90DF90CF90BF90AF909F908F90F3
:100550007F906F905F904F900895EF92FF920F936E
:100560001F9387E090E09093F1038093F0038091D4
:100570004401992787FD90950E942D0C80915F0181
:1005800090916001A0916101B091620120913B01C5
:1005900030913C0140913D0150913E01821B930BF3
:1005A000A40BB50B20915F01309160014091610176
:1005B0005091620120933B0130933C0140933D01F7
:1005C00050933E01E0906301F09064010091650159
:1005D0001091660120914B0130914C0140914D01E9
:1005E00050914E01E21AF30A040B150B209163019E
:1005F00030916401409165015091660120934B0157
:1006000030934C0140934D0150934E010E940B0CCE
:10061000C7010E940B0C80914501909146010E94F8
:100620002D0C8091590190915A010E940B0C8091E0
:100630005701909158010E940B0C80918301909179
:1006400084010E940B0C8091AB019091AC010E943F
:100650000B0C80919F019091A0010E940B0C809146
:10066000A3019091A4010E940B0C8091A70190918D
:10067000A8010E940B0C8091D0019091D1010E94A1
:100680000B0C8091F8019091F9010E940B0C809164
:10069000EC019091ED010E940B0C8091F001909182
:1006A000F1010E940B0C8091F4019091F5010E94E0
:1006B0000B0C8091F0039091F10301979093F1035B
:1006C0008093F0030E944F0C1F910F91FF90EF90C9
:1006D000089580915001813011F485E022C080910D
:1006E0005301909154018330910530F084E0809360
:1006F000440110924F0117C080914F01882311F4DB
:1007000083E00FC080914E0390914F03009741F01A
:1007100082E08093440110924F0310924E0303C075
:1007200081E0809344018091440180933F010895CA
:100730008091350190913601019690933601809316
:10074000350127E28031920721F410923601109290
:100750003501809135019091360164E170E00E948D
:10076000C00C009711F40E944406809135019091CD
:1007700036016091B2017091B3010E94C00C0097E4
:1007800049F48091AF01882319F00E943E0702C00E
:100790000E946D088091350190913601609137017A
:1007A000709138010E94C00C009711F40E94AD02B4
:1007B0002091350130913601C9016AE070E00E9454
:1007C000C00C0097B1F5A895C90164E670E00E94DD
:1007D000C00C0097F1F48091410190914201009783
:1007E00051F08091530190915401019690935401DE
:1007F0008093530104C010925401109253018091D0
:1008000051019091520190934601809345010E94BD
:100810006903809135019091360168EC70E00E9487
:10082000C00C009731F40E942A010E94FC000E9433
:10083000CD00089584B714BE843089F085302CF43F
:10084000813041F08230A1F408C0883051F080310D
:1008500079F40BC010920001089581E003C082E09A
:1008600001C083E080930001089584E0809300013B
:1008700008950E941A040E9448000E9421010E94CB
:100880002F010E94B3000E9473090E943C0682E37C
:1008900090E09093B3018093B20184E190E0909353
:1008A000B1018093B001909338018093370181E0CA
:1008B00090E0909342018093410183E090E0909317
:1008C0005401809353018AEA92E090934801809307
:1008D0004701109250010E94690378940E943301ED
:1008E00028E088E190E00FB6F894A8958093600026
:1008F0000FBE2093600080914301882341F08091D6
:1009000043018150809343010E949803F4CF0E94D9
:10091000700BF1CF8091440183305CF580915901D7
:1009200090915A012091590197FD06C05B982D9A2C
:1009300084B5806884BD06C05B9A2D9884B58068B4
:1009400084BD219527BD8091570190915801209138
:10095000570197FD06C02B9A2A9884B5806284BD02
:1009600006C02B982A9A84B5806284BD219528BD43
:10097000089584B58F7784BD84B58F7D84BD109232
:100980005A0110925901109258011092570108957E
:10099000E8E6F0E0808183608083E9E6F0E0808132
:1009A00085608083EBE6F0E0808180618083ECE607
:1009B000F0E08081806180831C9A199A349A359A7C
:1009C00010925F0110926001109261011092620119
:1009D00010922D0110922E0110922F0110923001D1
:1009E00010926301109264011092650110926601E9
:1009F00010923101109232011092330110923401A1
:100A000008951F920F920FB60F9211248F939F9308
:100A1000AF93BF931C9B03C0199B03C00EC0199BCF
:100A20000CC080915F0190916001A0916101B09133
:100A300062010197A109B1090BC080915F019091FA
:100A40006001A0916101B09162010196A11DB11DEB
:100A500080935F0190936001A0936101B093620164
:100A6000BF91AF919F918F910F900FBE0F901F90EC
:100A700018951F920F920FB60F9211248F939F9388
:100A8000AF93BF93349B03C0359B03C00EC0359B0F
:100A90000CC08091630190916401A0916501B091B7
:100AA00066010196A11DB11D0BC08091630190915B
:100AB0006401A0916501B09166010197A109B10996
:100AC0008093630190936401A0936501B0936601E4
:100AD000BF91AF919F918F910F900FBE0F901F907C
:100AE00018952F923F924F925F926F927F928F92C2
:100AF0009F92AF92BF92CF92DF92EF92FF920F93AD
:100B00001F93DF93CF93CDB7DEB728970FB6F89436
:100B1000DEBF0FBECDBF69837A838B839C831701B1
:100B2000280189A19AA1ABA1BCA180931501909342
:100B30001601A0931701B093180189819A81AB81A6
:100B4000BC818093730190937401A0937501B0935D
:100B50007601E7E6F1E02083318342835383E48228
:100B6000F58206831783A086B186C286D3868D8DD3
:100B70009E8DAF8DB8A1808B918BA28BB38B90E1B2
:100B8000E92E97E2F92E012D112DE0A6F1A602A77C
:100B900013A784E6682E712C812C912C64AA75AA67
:100BA00086AA97AACF012D833E834F8358870E9440
:100BB000800889819A81AB81BC818093C001909328
:100BC000C101A093C201B093C301E4EBF1E02D8118
:100BD0003E814F8158852083318342835383248211
:100BE000358246825782A086B186C286D3868D8D95
:100BF0009E8DAF8DB8A1808B918BA28BB38BE0A61D
:100C0000F1A602A713A764AA75AA86AA97AACF017C
:100C10000E94800828960FB6F894DEBF0FBECDBFA5
:100C2000CF91DF911F910F91FF90EF90DF90CF90C8
:100C3000BF90AF909F908F907F906F905F904F90FC
:100C40003F902F90089583E084BD81E085BD539A45
:100C5000259A569A84B58F7784BD10925A011092C6
:100C60005901239A229A559A84B58F7D84BD10929A
:100C7000580110925701089581E08093AF010E94BE
:100C8000C8040E9423060895E3E1F1E0ABE2B1E07D
:100C900092918291938382839E918E9113969C93DD
:100CA0008E93129781E0E130F80791F780915F0110
:100CB00090916001A0916101B091620120912D019C
:100CC00030912E01821B930B9093020180930101BE
:100CD00080915F0190916001A0916101B0916201EA
:100CE00080932D0190932E01A0932F01B09330019A
:100CF0008091630190916401A0916501B0916601BA
:100D00002091310130913201821B930B90931A0193
:100D1000809319018091630190916401A091650114
:100D2000B09166018093310190933201A093330119
:100D3000B09334010895CF92DF92EF92FF920F9318
:100D40001F93CF93DF93FC016081718142815381B6
:100D500024813581DA01A20FB31FA60FB71FCD0181
:100D6000449689329105F0F0DA01AA0FBB1FE3E047
:100D7000440F551FEA95E1F7A40FB51FC901880F6D
:100D8000991F880F991F820F931FA80FB91FCB01BE
:100D900004E0880F991F0A95E1F7861B970BA80FAF
:100DA000B91F62C006811781C085D185CE01800F31
:100DB000911F8A0F9B1F44967801EE0CFF1CEE0CCE
:100DC000FF1C8B01B3E0000F111FBA95E1F76E0114
:100DD000CC0CDD1C89329105D0F0DA0183E0AA0F3A
:100DE000BB1F8A95E1F7AE0DBF1D660F771F600F21
:100DF000711FA60FB71FC901880F991F820F931F7C
:100E0000880F991FA80FB91FAC0DBD1D2DC0D801AB
:100E1000A61BB70B84859585A80FB91F8685978576
:100E2000A80FB91F80899189A80FB91FCA01880F1F
:100E3000991F840F951F880F991FA80FB91FAE0D1A
:100E4000BF1DC901880F991F880F991F820F931F1B
:100E5000A80FB91F82859385880F991FA80FB91F06
:100E6000CC0DDD1DAC0FBD1FCD01DF91CF911F91CA
:100E70000F91FF90EF90DF90CF9008958091FC014B
:100E80009091FD01009709F47FC020914401233027
:100E90000CF07AC09C01220F331F45E0880F991F88
:100EA0004A95E1F7821B930B62E370E00E94D40C39
:100EB000882777FD8095982F60937B0170937C0144
:100EC00080937D0190937E0181E091E00E949B06DA
:100ED000AA2797FDA095BA2F80937F019093800158
:100EE000A0938101B093820187E691E00E94A4085B
:100EF0006091AB017091AC018091AD019091AE0118
:100F000022E330E040E050E00E94E70C80915B017A
:100F100090915C01A0915D01B0915E01280F391F95
:100F20004A1F5B1F20935B0130935C0140935D017E
:100F300050935E016091FC017091FD01809115015B
:100F400090911601161617061CF4280F391F02C0BF
:100F5000281B390B30935A01209359018091590174
:100F600090915A018F3F910521F01CF08FEF90E096
:100F700006C02FEF81309207BCF481E09FEF909381
:100F80005A018093590110C010925B0110925C01CC
:100F900010925D0110925E0110925A011092590157
:100FA00087E691E00E94800880915501909156015A
:100FB000009709F47FC02091440123300CF07AC0DF
:100FC0009C01220F331FA5E0880F991FAA95E1F716
:100FD000821B930B62E370E00E94D40C882777FD9C
:100FE0008095982F6093C8017093C9018093CA01BE
:100FF0009093CB0189E191E00E949B06AA2797FD7F
:10100000A095BA2F8093CC019093CD01A093CE01EF
:10101000B093CF0184EB91E00E94A4086091F801A5
:101020007091F9018091FA019091FB0122E330E087
:1010300040E050E00E94E70C8091FE019091FF019A
:10104000A0910002B0910102280F391F4A1F5B1FB7
:101050002093FE013093FF01409300025093010260
:101060006091550170915601809115019091160182
:10107000161617061CF4280F391F02C0281B390B3F
:101080003093580120935701809157019091580156
:101090008F3F910521F01CF08FEF90E006C02FEFFD
:1010A00081309207BCF481E09FEF909358018093C8
:1010B000570110C01092FE011092FF011092000221
:1010C00010920102109258011092570184EB91E0A6
:1010D0000E9480080E948A0408958091FC019091EA
:1010E000FD0190935A01809359018091550190918F
:1010F000560190935801809357010E948A040895E5
:10110000FC01148E158E168E178E10A211A212A23B
:1011100013A214A615A616A617A610AE11AE12AEEF
:1011200013AE14AE15AE16AE17AEDC01A05CBF4F09
:101130001D921D921D921C921397EC5BFF4F108223
:1011400011821282138208952F923F924F925F92E2
:101150006F927F928F929F92AF92BF92CF92DF92C7
:10116000EF92FF920F931F93CF93DF93EC016C8864
:101170007D888E889F88888D998DAA8DBB8D681AF1
:10118000790A8A0A9B0A6C8E7D8E8E8E9F8ECC8405
:10119000DD84EE84FF84C401B301A70196010E949F
:1011A000A10C2CA53DA54EA55FA5620F731F841F42
:1011B000951F6CA77DA78EA79FA728A539A54AA52F
:1011C0005BA50E94E70C2CA33DA34EA35FA38889D7
:1011D0009989AA89BB8982179307A407B50764F088
:1011E000B095A095909581959F4FAF4FBF4F281711
:1011F00039074A075B0724F48CA39DA3AEA3BFA3C2
:1012000088A199A1AAA1BBA1A4019301281B390B14
:101210004A0B5B0BCA01B9012CA93DA94EA95FA9D4
:101220000E94A10CA70196010E94E70C122F032F28
:10123000B42EA52E28AB39AB4AAB5BAB28813981E4
:101240004A815B81C401B3010E94A10C1B012C01E6
:1012500068AF79AF8AAF9BAF6CA17DA18EA19FA132
:101260002C813D814E815F810E94A10C6B017C012C
:101270006CAF7DAF8EAF9FAF288539854A855B8582
:10128000612F702F8B2D9A2D0E94A10CFE01E05C26
:10129000FF4F6083718382839383FE01EC5BFF4F7A
:1012A000C20CD31CE41CF51CC60ED71EE81EF91E8A
:1012B000C082D182E282F38268A279A28AA29BA232
:1012C000DF91CF911F910F91FF90EF90DF90CF9022
:1012D000BF90AF909F908F907F906F905F904F9056
:1012E0003F902F900895E1ECF0E088E18083109228
:1012F000C50080E18093C40086E08093C2008081B5
:101300008068808310925702109256021092040255
:10131000109203021092AB021092AA02109259028C
:10132000109258021092550208951F920F920FB614
:101330000F9211242F933F938F939F93EF93FF93DB
:101340008091560290915702019690935702809394
:1013500056028035910521F41092570210925602E0
:10136000809156029091570220910302309104021D
:101370008217930731F02091C6008B5F9D4FFC01CF
:101380002083FF91EF919F918F913F912F910F902B
:101390000FBE0F901F9018951F920F920FB60F92CD
:1013A00011242F933F938F939F93EF93FF938091FB
:1013B0005802909159022091AA023091AB0228174D
:1013C0003907B1F001969093590280935802803505
:1013D000910521F41092590210925802E09158029E
:1013E000F0915902E65AFD4F80818093C60007C0F4
:1013F0008091C1008F7B8093C10010925502FF91B4
:10140000EF919F918F913F912F910F900FBE0F9071
:101410001F9018952091AA023091AB02809158023A
:101420009091590228173907E9F021E020935502DD
:101430002091C10020642093C1000196909359022D
:10144000809358028035910521F410925902109230
:101450005802E0915802F0915902E65AFD4F8081FE
:101460008093C60008952091AA023091AB022F5FAD
:101470003F4F3093AB022093AA022035310521F46F
:101480001092AB021092AA022091AA023091AB02F4
:1014900040915802509159022417350721F0265ADD
:1014A0003D4FF901808380915502882311F40E94F9
:1014B0000A0A08959091C00095FFFCCF8093C60062
:1014C0000895FC012BC02091AA023091AB022F5F3E
:1014D0003F4F3093AB022093AA022035310521F40F
:1014E0001092AB021092AA028091AA029091AB02D4
:1014F00020915802309159028217930731F0865A91
:101500009D4F2191DC012C9309C01092AB021092E7
:10151000AA02109259021092580203C080818823B7
:1015200091F680915502882311F40E940A0A0895C9
:101530008091C0008074089581E0409156025091DE
:10154000570220910302309104024217530709F415
:1015500080E0089580910302909104020196909397
:101560000402809303028035910521F41092040255
:1015700010920302E0910302F0910402EB5FFD4F31
:101580008081089502C08091C6008091C00087FDCF
:10159000FACF08958A3314F480530895873414F4ED
:1015A00087530895873614F48755089580E0089589
:1015B0008FEF9FEF9093F3038093F20310924F030A
:1015C00010924E038DE00E94330A8AE00E94330A93
:1015D0000895FF920F931F93CF93DF9380914C0355
:1015E00090914D03FC01E455FD4F20812C3291F583
:1015F000EC012196FE01E455FD4F20812C3251F182
:101600002091F2033091F30301C02196C217D30752
:101610002CF441914C3211F04A32B9F78E01045545
:101620001D4FF801F080108283559D4F0E94240DBC
:101630009C01F801F082FF2DFC3229F4D0934D0378
:10164000C0934C0309C08FEF9FEF90934D0380939D
:101650004C0302C020E030E0C901DF91CF911F911F
:101660000F91FF9008950F931F93CF93DF93809175
:10167000F2039091F303181619066CF584E20E94A8
:10168000330A85E40E94330A85E40E94330A85E424
:101690000E94330A85E40E94330A85E40E94330ADB
:1016A0008CE20E94330A0CEA12E0C0E0D0E006C0EF
:1016B000F80181918F010E94330A21968091F203F3
:1016C0009091F303C817D9079CF38DE00E94330A69
:1016D0008AE00E94330ADF91CF911F910F91089504
:1016E000EF92FF920F931F93CF93DF93CFEFDFEF34
:1016F00082C00E94AA0A8432B1F48091F2039091D0
:10170000F3032FEF8F3F920749F080914E039091A2
:101710004F03019690934F0380934E031092F3036F
:101720001092F20368C08D3019F08A3009F041C080
:101730000091F2031091F30304301105ACF109306C
:10174000110534F1F801E755FD4F80818A3209F027
:1017500058C0ECEAF2E0C80187559D4FFF24219163
:10176000F226E817F907D9F704551D4FF80132970B
:1017700080810E94CA0AE82EF801319780810E9478
:10178000CA0AE29490EFE922E82AFE1421F439C053
:1017900006301105B4F580914E0390914F030196E8
:1017A00090934F0380934E03D093F303C093F203BF
:1017B00022C02091F2033091F3039FEF2F3F3907AE
:1017C000D1F0F901E455FD4F80832F5F3F4F3093F7
:1017D000F3032093F203203A310569F4D093F30325
:1017E000C093F20380914E0390914F030196909322
:1017F0004F0380934E030E949C0A882309F079CFFF
:1018000003C00E948801D0CFDF91CF911F910F912B
:10181000FF90EF9008956091F0037091F103605B89
:101820007C4F4AE050E00E94420D8091F00390917D
:10183000F103FC01E05BFC4F9C01419101964423C4
:10184000D9F7F901E05BFC4F8CE280832F5F3F4FBB
:101850003093F1032093F00308956091F0037091A9
:10186000F103605B7C4F4AE050E00E94420D8091A2
:10187000F0039091F103FC01E05BFC4F9C0141916E
:1018800001964423D9F7F901E05BFC4F8CE2808399
:101890002F5F3F4F3093F1032093F0030895409161
:1018A000F0035091F103FA01E05BFC4F8AE2808380
:1018B000BA016F5F7F4F7093F1036093F003E1E52E
:1018C000F3E080E021E030E004C0919189272F5FB0
:1018D0003F4F24173507CCF3605B7C4F90E040E12D
:1018E00050E00E946B0D8091F0039091F103FC0198
:1018F000E05BFC4F9C012E5A3C4F08C04081542FA6
:101900005156563010F4405240833196E217F30797
:10191000A9F7FC01EE5AFC4F2DE02083FC01ED5AA3
:10192000FC4F2AE02083FC01EC5AFC4F1082059604
:101930009093F1038093F00380E593E00E94610AA5
:101940000895629FD001739FF001829FE00DF11D09
:10195000649FE00DF11D929FF00D839FF00D749F29
:10196000F00D659FF00D9927729FB00DE11DF91FD5
:10197000639FB00DE11DF91FBD01CF011124089532
:10198000AA1BBB1B51E107C0AA1FBB1FA617B707A5
:1019900010F0A61BB70B881F991F5A95A9F78095C1
:1019A0009095BC01CD01089597FB092E07260AD01A
:1019B00077FD04D0E5DF06D000201AF4709561951C
:1019C0007F4F0895F6F7909581959F4F089597FB67
:1019D000092E05260ED057FD04D014D00AD0001CC5
:1019E00038F450954095309521953F4F4F4F5F4FBC
:1019F0000895F6F790958095709561957F4F8F4F7C
:101A00009F4F0895A1E21A2EAA1BBB1BFD010DC01A
:101A1000AA1FBB1FEE1FFF1FA217B307E407F5079E
:101A200020F0A21BB30BE40BF50B661F771F881F7A
:101A3000991F1A9469F760957095809590959B0110
:101A4000AC01BD01CF010895FC0188279927E894D6
:101A500021912032E9F3293010F02E30C8F32B32D7
:101A600041F02D3239F4689404C00E94630D820F56
:101A7000911D219120532A30C0F31EF49095819539
:101A80009F4F0895FB019F01E8944230C4F0453216
:101A9000B4F44A3029F497FB1EF4909581959F4F3A
:101AA000642F77270E94C00C805D8A330CF0895D1B
:101AB0008193CB010097A1F716F45DE25193108258
:101AC000C9010C94810D7AE0979F902D879F802DFE
:101AD000910D11240895FB019F01423074F04532AD
:101AE00064F4642F77270E94C00C805D8A330CF069
:101AF000895D8193CB010097A1F71082C9010C94F5
:101B0000810DDC01FC01672F71917723E1F732979A
:101B100004C07C916D9370836291AE17BF07C8F3C8
:061B20000895F894FFCFC8
:00000001FF
