:100000000C9434000C9446000C9446000C94C804E4
:100010000C9400050C9446000C9446000C94460089
:100020000C9446000C9446000C9446000C945C0022
:100030000C9446000C9446000C9446000C94460028
:100040000C9446000C9446000C945C090C944600F9
:100050000C9493090C9473000C9446000C94460085
:100060000C9446000C94460011241FBECFEFD4E040
:10007000DEBFCDBF13E0A0E0B1E001C01D92A33F01
:10008000B107E1F70E940D040C94520D0C9400008E
:1000900010924201109235011092340182E0809357
:1000A0006F008AE08093810080ED97E09093890053
:1000B000809388003B9A08951F920F920FB60F927B
:1000C00011248F939F93809142018F5F809342010F
:1000D00088B198E0892788B99F918F910F900FBEC2
:1000E0000F901F9018951F920F920FB60F92112428
:1000F0002F933F938F939F93EF93FF93E09148014A
:10010000F0E08091780090917900392F20E090E024
:10011000822B932BEE0FFF1FE05BFE4F91838083BA
:10012000809148018F5F8093480180914801882326
:1001300011F010924801E0914801F0E0E75BFE4FBA
:10014000808180937C0080917A00806480937A0023
:10015000FF91EF919F918F913F912F910F900FBE43
:100160000F901F9018951092480110924901EAE7EC
:10017000F0E080E880838081876080838081886070
:100180008083A0914801B0E0A75BBE4F8C91809323
:100190007C0080818064808308958091FB01909130
:1001A000FC01009741F58091540190915501009711
:1001B00011F580914F01882379F420914401309109
:1001C000450180914601909147012817390798F41D
:1001D00081E080934F010895813069F420914401BA
:1001E00030914501809146019091470128173907C8
:1001F00010F010924F01089580913901882331F059
:100200008130F1F410923901289A089520913F012C
:100210002F5F20933F0180913E0182172CF0289898
:1002200081E0809339010895332727FD3095992780
:1002300087FD909504968217930714F410923F015E
:100240000895209A10923F0181E080933E01109220
:100250003901089589B180788093380108955F9AB3
:100260000E942A0108950E949F0A8FEF9FEF9093AA
:1002700053018093520184E280934F0380E5809381
:10028000500386E48093510382E48093520388E410
:100290008093530389E4809354039CE29093550325
:1002A00081E38093560390935703809358038AE029
:1002B00090E09093F0038093EF030E94100C83E58D
:1002C0008093530384E58093540387E090E09093F8
:1002D000F0038093EF0310923A0110923B011092C9
:1002E0003C0110923D0110924A0110924B01109274
:1002F0004C0110924D0108954F925F926F927F9240
:100300008F929F92AF92BF92CF92DF92EF92FF9225
:100310000F931F93CF93DF938091AE02833409F044
:1003200043C08091AF02843501F5109253011092C1
:10033000520185E090E090934C0380934B030E9420
:10034000AA0A9093FC018093FB0180914B0390914A
:100350004C032FEF8F3F920709F4E2C00E94AA0AD4
:100360009093550180935401DBC0803509F0D8C0CB
:1003700085E090E090934C0380934B030E94AA0A7F
:10038000909337018093360180914B0390914C03F9
:100390003FEF8F3F930709F4C3C00E94AA0A9093CE
:1003A000410180934001BCC0833591F48091AF023C
:1003B000803509F0B5C085E090E090934C038093C0
:1003C0004B030E94AA0A9093470180934601A8C05C
:1003D000873509F0A5C08091AF02803509F0A0C033
:1003E00085E090E090934C0380934B030E94AA0A0F
:1003F0008093AE01813009F093C00E94AA0ABC012B
:100400009093B2018093B10188EE93E00E94950C25
:100410007093B0016093AF0180914B0390914C03B6
:100420006FEF8F3F960709F47BC00E94AA0A2C0148
:1004300080914B0390914C037FEF8F3F970709F416
:100440006FC00E94AA0AEC0180914B0390914C036B
:10045000EFEF8F3F9E0709F463C00E94AA0A6C0168
:1004600080914B0390914C03FFEF8F3F9F0709F45E
:1004700057C00E94AA0A4C0180914B0390914C03F3
:100480002FEF8F3F920709F44BC00E94AA0A21E088
:1004900020934E016DB77EB7685070400FB6F89448
:1004A0007EBF0FBE6DBFE090B101F090B20100279A
:1004B000F7FC0095102F9E01442737FD4095542FDF
:1004C000F6015F01CC24B7FCC094DC2CB4013B01E5
:1004D000882477FC8094982CAA2797FDA095BA2FA2
:1004E000EDB7FEB781839283A383B483C201AA27A9
:1004F00097FDA095BA2F85839683A783B087C801FF
:10050000B70186017501640153010E9438052DB7BA
:100510003EB7285F3F4F0FB6F8943EBF0FBE2DBFCA
:10052000DF91CF911F910F91FF90EF90DF90CF90CF
:10053000BF90AF909F908F907F906F905F904F9003
:100540000895EF92FF920F931F9387E090E09093AE
:10055000F0038093EF0380914301992787FD9095E5
:100560000E94EE0B80915E0190915F01A09160016D
:10057000B091610120913A0130913B0140913C01E1
:1005800050913D01821B930BA40BB50B20915E0192
:1005900030915F01409160015091610120933A01D7
:1005A00030933B0140933C0150933D01E090620148
:1005B000F0906301009164011091650120914A015E
:1005C00030914B0140914C0150914D01E21AF30AD8
:1005D000040B150B2091620130916301409164017D
:1005E0005091650120934A0130934B0140934C0197
:1005F00050934D010E94CC0BC7010E94CC0B8091FF
:100600004401909145010E94EE0B80915801909118
:1006100059010E94CC0B80915601909157010E9484
:10062000CC0B80918201909183010E94CC0B809130
:10063000AA019091AB010E94CC0B80919E019091F8
:100640009F010E94CC0B8091A2019091A3010E9476
:10065000CC0B8091A6019091A7010E94CC0B8091B8
:10066000CF019091D0010E94CC0B8091F701909125
:10067000F8010E94CC0B8091EB019091EC010E945B
:10068000CC0B8091EF019091F0010E94CC0B8091F6
:10069000F3019091F4010E94CC0B8091EF039091B3
:1006A000F00301979093F0038093EF030E94100CE6
:1006B0001F910F91FF90EF90089580914F0181302D
:1006C00011F485E022C08091520190915301833052
:1006D000910530F084E08093430110924E0117C0E1
:1006E00080914E01882311F483E00FC080914D0367
:1006F00090914E03009741F082E080934301109265
:100700004E0310924D0303C081E08093430180911A
:10071000430180933E010895809134019091350109
:100720000196909335018093340127E2803192073E
:1007300021F410923501109234018091340190918E
:10074000350164E170E00E94810C009711F40E9471
:100750000B0680913401909135016091B101709147
:10076000B2010E94810C009749F48091AE01882368
:1007700019F00E94050702C00E94340880913401DC
:100780009091350160913601709137010E94810C82
:10079000009711F40E94A10220913401309135019B
:1007A000C9016AE070E00E94810C0097A9F5C901B7
:1007B00064E670E00E94810C0097F1F480914001A2
:1007C00090914101009751F0809152019091530115
:1007D0000196909353018093520104C010925301EB
:1007E00010925201809150019091510190934501D6
:1007F000809344010E945D03809134019091350102
:1008000068EC70E00E94810C009731F40E942A018C
:100810000E94FC000E94CD0008950E9448000E94A2
:1008200021010E942F010E94B3000E943A090E94F8
:10083000030682E390E09093B2018093B10184E1DA
:1008400090E09093B0018093AF0190933701809333
:10085000360181E090E0909341018093400183E074
:1008600090E090935301809352018AEA92E0909332
:1008700047018093460110924F010E945D037894D6
:100880000E94330180914201882341F0809142010E
:100890008150809342010E948C03F4CF0E94310B5F
:1008A000F1CF8091430183305CF5809158019091A4
:1008B00059012091580197FD06C05B982D9A84B587
:1008C000806884BD06C05B9A2D9884B5806884BD1D
:1008D000219527BD80915601909157012091560195
:1008E00097FD06C02B9A2A9884B5806284BD06C005
:1008F0002B982A9A84B5806284BD219528BD0895DD
:1009000084B58F7784BD84B58F7D84BD10925901E5
:100910001092580110925701109256010895E8E67E
:10092000F0E0808183608083E9E6F0E0808185608B
:100930008083EBE6F0E0808180618083ECE6F0E08C
:100940008081806180831C9A199A349A359A10921A
:100950005E0110925F01109260011092610110928D
:100960002C0110922D0110922E0110922F01109245
:10097000620110926301109264011092650110925D
:10098000300110923101109232011092330108951A
:100990001F920F920FB60F9211248F939F93AF93D4
:1009A000BF931C9B03C0199B03C00EC0199B0CC0B6
:1009B00080915E0190915F01A0916001B091610111
:1009C0000197A109B1090BC080915E0190915F016F
:1009D000A0916001B09161010196A11DB11D8093AC
:1009E0005E0190935F01A0936001B0936101BF919C
:1009F000AF919F918F910F900FBE0F901F90189500
:100A00001F920F920FB60F9211248F939F93AF9363
:100A1000BF93349B03C0359B03C00EC0359B0CC0F5
:100A20008091620190916301A0916401B091650190
:100A30000196A11DB11D0BC08091620190916301CF
:100A4000A0916401B09165010197A109B10980935A
:100A5000620190936301A0936401B0936501BF911B
:100A6000AF919F918F910F900FBE0F901F9018958F
:100A70002F923F924F925F926F927F928F929F92AE
:100A8000AF92BF92CF92DF92EF92FF920F931F939C
:100A9000DF93CF93CDB7DEB728970FB6F894DEBFBC
:100AA0000FBECDBF69837A838B839C831701280196
:100AB00089A19AA1ABA1BCA18093140190931501C7
:100AC000A0931601B093170189819A81AB81BC81F3
:100AD0008093720190937301A0937401B093750198
:100AE000E6E6F1E02083318342835383E482F5829A
:100AF00006831783A086B186C286D3868D8D9E8D90
:100B0000AF8DB8A1808B918BA28BB38B90E1E92E36
:100B100097E2F92E012D112DE0A6F1A602A713A749
:100B200084E6682E712C812C912C64AA75AA86AA61
:100B300097AACF012D833E834F8358870E94470891
:100B400089819A81AB81BC818093BF019093C00160
:100B5000A093C101B093C201E3EBF1E02D813E818E
:100B60004F81588520833183428353832482358289
:100B700046825782A086B186C286D3868D8D9E8D91
:100B8000AF8DB8A1808B918BA28BB38BE0A6F1A621
:100B900002A713A764AA75AA86AA97AACF010E94E2
:100BA000470828960FB6F894DEBF0FBECDBFCF9191
:100BB000DF911F910F91FF90EF90DF90CF90BF904A
:100BC000AF909F908F907F906F905F904F903F90ED
:100BD0002F90089583E084BD81E085BD539A259AC6
:100BE000569A84B58F7784BD10925901109258019E
:100BF000239A229A559A84B58F7D84BD109257010D
:100C000010925601089581E08093AE010E948F04F6
:100C10000E94EA050895E2E1F1E0AAE2B1E09291D2
:100C20008291938382839E918E9113969C938E934F
:100C3000129781E0E030F80791F780915E01909182
:100C40005F01A0916001B091610120912C01309170
:100C50002D01821B930B90930101809300018091E1
:100C60005E0190915F01A0916001B091610180935C
:100C70002C0190932D01A0932E01B0932F01809110
:100C8000620190916301A0916401B091650120918E
:100C9000300130913101821B930B909319018093A5
:100CA00018018091620190916301A0916401B0915B
:100CB00065018093300190933101A0933201B0938C
:100CC00033010895CF92DF92EF92FF920F931F931B
:100CD000CF93DF93FC016081718142815381248134
:100CE0003581DA01A20FB31FA60FB71FCD014496BD
:100CF00089329105F0F0DA01AA0FBB1FE3E0440F3F
:100D0000551FEA95E1F7A40FB51FC901880F991F78
:100D1000880F991F820F931FA80FB91FCB0104E002
:100D2000880F991F0A95E1F7861B970BA80FB91F2B
:100D300062C006811781C085D185CE01800F911FC9
:100D40008A0F9B1F44967801EE0CFF1CEE0CFF1CD3
:100D50008B01B3E0000F111FBA95E1F76E01CC0CC7
:100D6000DD1C89329105D0F0DA0183E0AA0FBB1FA8
:100D70008A95E1F7AE0DBF1D660F771F600F711FDB
:100D8000A60FB71FC901880F991F820F931F880FE5
:100D9000991FA80FB91FAC0DBD1D2DC0D801A61BF2
:100DA000B70B84859585A80FB91F86859785A80FF1
:100DB000B91F80899189A80FB91FCA01880F991F8F
:100DC000840F951F880F991FA80FB91FAE0DBF1D67
:100DD000C901880F991F880F991F820F931FA80FB1
:100DE000B91F82859385880F991FA80FB91FCC0D55
:100DF000DD1DAC0FBD1FCD01DF91CF911F910F9174
:100E0000FF90EF90DF90CF9008958091FB0190913B
:100E1000FC01009709F47FC02091430123300CF0BE
:100E20007AC09C01220F331F45E0880F991F4A9515
:100E3000E1F7821B930B62E370E00E94950C882718
:100E400077FD8095982F60937A0170937B01809352
:100E50007C0190937D0180E091E00E946206AA27C8
:100E600097FDA095BA2F80937E0190937F01A09368
:100E70008001B093810186E691E00E946B08609149
:100E8000AA017091AB018091AC019091AD0122E378
:100E900030E040E050E00E94A80C80915A0190910F
:100EA0005B01A0915C01B0915D01280F391F4A1FC1
:100EB0005B1F20935A0130935B0140935C01509378
:100EC0005D016091FB017091FC0180911401909192
:100ED0001501161617061CF4280F391F02C0281B0F
:100EE000390B30935901209358018091580190910A
:100EF00059018F3F910521F01CF08FEF90E006C063
:100F00002FEF81309207BCF481E09FEF909359015D
:100F10008093580110C010925A0110925B011092F8
:100F20005C0110925D01109259011092580186E601
:100F300091E00E94470880915401909155010097DB
:100F400009F47FC02091430123300CF07AC09C014A
:100F5000220F331FA5E0880F991FAA95E1F7821B86
:100F6000930B62E370E00E94950C882777FD8095D3
:100F7000982F6093C7017093C8018093C901909323
:100F8000CA0188E191E00E946206AA2797FDA09518
:100F9000BA2F8093CB019093CC01A093CD01B09355
:100FA000CE0183EB91E00E946B086091F701709194
:100FB000F8018091F9019091FA0122E330E040E0DC
:100FC00050E00E94A80C8091FD019091FE01A0913B
:100FD000FF01B0910002280F391F4A1F5B1F2093A9
:100FE000FD013093FE014093FF0150930002609198
:100FF00054017091550180911401909115011616BC
:1010000017061CF4280F391F02C0281B390B309318
:1010100057012093560180915601909157018F3FBF
:10102000910521F01CF08FEF90E006C02FEF81308A
:101030009207BCF481E09FEF909357018093560193
:1010400010C01092FD011092FE011092FF0110924B
:101050000002109257011092560183EB91E00E941A
:1010600047080E94510408958091FB019091FC0172
:1010700090935901809358018091540190915501AA
:1010800090935701809356010E9451040895FC01EA
:10109000148E158E168E178E10A211A212A213A2F4
:1010A00014A615A616A617A610AE11AE12AE13AE54
:1010B00014AE15AE16AE17AEDC01A05CBF4F1D928C
:1010C0001D921D921C921397EC5BFF4F10821182B0
:1010D0001282138208952F923F924F925F926F92E5
:1010E0007F928F929F92AF92BF92CF92DF92EF92B8
:1010F000FF920F931F93CF93DF93EC016C887D8851
:101100008E889F88888D998DAA8DBB8D681A790AE3
:101110008A0A9B0A6C8E7D8E8E8E9F8ECC84DD8497
:10112000EE84FF84C401B301A70196010E94620C02
:101130002CA53DA54EA55FA5620F731F841F951FAB
:101140006CA77DA78EA79FA728A539A54AA55BA553
:101150000E94A80C2CA33DA34EA35FA38889998964
:10116000AA89BB8982179307A407B50764F0B095D5
:10117000A095909581959F4FAF4FBF4F2817390786
:101180004A075B0724F48CA39DA3AEA3BFA388A149
:1011900099A1AAA1BBA1A4019301281B390B4A0B59
:1011A0005B0BCA01B9012CA93DA94EA95FA90E94F8
:1011B000620CA70196010E94A80C122F032FB42ED7
:1011C000A52E28AB39AB4AAB5BAB288139814A816C
:1011D0005B81C401B3010E94620C1B012C0168AF4A
:1011E00079AF8AAF9BAF6CA17DA18EA19FA12C810D
:1011F0003D814E815F810E94620C6B017C016CAF6E
:101200007DAF8EAF9FAF288539854A855B85612F7D
:10121000702F8B2D9A2D0E94620CFE01E05CFF4F17
:101220006083718382839383FE01EC5BFF4FC20C6A
:10123000D31CE41CF51CC60ED71EE81EF91EC08286
:10124000D182E282F38268A279A28AA29BA2DF9174
:10125000CF911F910F91FF90EF90DF90CF90BF90B3
:10126000AF909F908F907F906F905F904F903F9046
:101270002F900895E1ECF0E088E180831092C500A2
:1012800080E18093C40086E08093C2008081806802
:10129000808310925602109255021092030210920F
:1012A00002021092AA021092A90210925802109201
:1012B00057021092540208951F920F920FB60F9288
:1012C00011242F933F938F939F93EF93FF938091DC
:1012D00055029091560201969093560280935502C2
:1012E0008035910521F4109256021092550280919A
:1012F000550290915602209102023091030282170A
:10130000930731F02091C6008C5F9D4FFC01208334
:10131000FF91EF919F918F913F912F910F900FBE71
:101320000F901F9018951F920F920FB60F921124D5
:101330002F933F938F939F93EF93FF938091570247
:10134000909158022091A9023091AA0228173907DA
:10135000B1F0019690935802809357028035910521
:1013600021F41092580210925702E0915702F09126
:101370005802E75AFD4F80818093C60007C08091D4
:10138000C1008F7B8093C10010925402FF91EF91B6
:101390009F918F913F912F910F900FBE0F901F90B3
:1013A00018952091A9023091AA028091570290913C
:1013B000580228173907E9F021E0209354022091C0
:1013C000C10020642093C10001969093580280933D
:1013D00057028035910521F410925802109257025D
:1013E000E0915702F0915802E75AFD4F80818093B7
:1013F000C60008952091A9023091AA022F5F3F4FA5
:101400003093AA022093A9022035310521F41092CD
:10141000AA021092A9022091A9023091AA02409139
:101420005702509158022417350721F0275A3D4F93
:10143000F901808380915402882311F40E94D1091C
:1014400008959091C00095FFFCCF8093C600089549
:10145000FC012BC02091A9023091AA022F5F3F4FBF
:101460003093AA022093A9022035310521F410926D
:10147000AA021092A9028091A9029091AA02209139
:101480005702309158028217930731F0875A9D4FC7
:101490002191DC012C9309C01092AA021092A9029A
:1014A000109258021092570203C08081882391F64F
:1014B00080915402882311F40E94D10908958091EB
:1014C000C0008074089581E0409155025091560209
:1014D00020910202309103024217530709F480E081
:1014E0000895809102029091030201969093030265
:1014F000809302028035910521F41092030210922C
:101500000202E0910202F0910302EC5FFD4F808144
:10151000089502C08091C6008091C00087FDFACF77
:1015200008958A3314F480530895873414F487534C
:101530000895873614F48755089580E008958FEF55
:101540009FEF9093F2038093F10310924E03109259
:101550004D030895FF920F931F93CF93DF938091D4
:101560004B0390914C03FC01E555FD4F20812C323B
:1015700091F5EC012196FE01E555FD4F20812C32BD
:1015800051F12091F1033091F20301C02196C2176D
:10159000D3072CF441914C3211F04A32B9F78E0145
:1015A00005551D4FF801F080108284559D4F0E9413
:1015B000E50C9C01F801F082FF2DFC3229F4D09358
:1015C0004C03C0934B0309C08FEF9FEF90934C03E4
:1015D00080934B0302C020E030E0C901DF91CF913E
:1015E0001F910F91FF9008950F931F93CF93DF9357
:1015F0008091F1039091F203181619066CF584E2BC
:101600000E94FA0985E40E94FA0985E40E94FA0919
:1016100085E40E94FA0985E40E94FA0985E40E94A3
:10162000FA098CE20E94FA090BEA12E0C0E0D0E06D
:1016300006C0F80181918F010E94FA0921968091DC
:10164000F1039091F203C817D9079CF38DE00E9433
:10165000FA098AE00E94FA09DF91CF911F910F9158
:101660000895EF92FF920F931F93CF93DF93CFEFE5
:10167000DFEF82C00E94710A8432B1F48091F103DD
:101680009091F2032FEF8F3F920749F080914D0325
:1016900090914E03019690934E0380934D031092C8
:1016A000F2031092F10368C08D3019F08A3009F00E
:1016B00041C00091F1031091F20304301105ACF127
:1016C0000930110534F1F801E855FD4F80818A3267
:1016D00009F058C0EBEAF2E0C80188559D4FFF249D
:1016E0002191F226E817F907D9F705551D4FF801A2
:1016F000329780810E94910AE82EF801319780810B
:101700000E94910AE29490EFE922E82AFE1421F463
:1017100039C006301105B4F580914D0390914E0308
:10172000019690934E0380934D03D093F203C093A0
:10173000F10322C02091F1033091F2039FEF2F3F7C
:101740003907D1F0F901E555FD4F80832F5F3F4FF9
:101750003093F2032093F103203A310569F4D093DA
:10176000F203C093F10380914D0390914E030196D3
:1017700090934E0380934D030E94630A882309F0DF
:1017800079CF03C00E947C01D0CFDF91CF911F9110
:101790000F91FF90EF9008956091EF037091F00327
:1017A000615B7C4F4AE050E00E94030D8091EF03A3
:1017B0009091F003FC01E15BFC4F9C01419101968B
:1017C0004423D9F7F901E15BFC4F8CE280832F5F62
:1017D0003F4F3093F0032093EF0308956091EF03A0
:1017E0007091F003615B7C4F4AE050E00E94030D72
:1017F0008091EF039091F003FC01E15BFC4F9C01B1
:10180000419101964423D9F7F901E15BFC4F8CE249
:1018100080832F5F3F4F3093F0032093EF030895B1
:101820004091EF035091F003FA01E15BFC4F8AE233
:101830008083BA016F5F7F4F7093F0036093EF0373
:10184000E0E5F3E080E021E030E004C091918927F9
:101850002F5F3F4F24173507CCF3615B7C4F90E03F
:1018600040E150E00E942C0D8091EF039091F00335
:10187000FC01E15BFC4F9C012F5A3C4F08C04081AA
:10188000542F5156563010F4405240833196E2178F
:10189000F307A9F7FC01EF5AFC4F2DE02083FC0170
:1018A000EE5AFC4F2AE02083FC01ED5AFC4F1082D7
:1018B00005969093F0038093EF038FE493E00E94EA
:1018C000280A0895629FD001739FF001829FE00D66
:1018D000F11D649FE00DF11D929FF00D839FF00DAF
:1018E000749FF00D659FF00D9927729FB00DE11D5B
:1018F000F91F639FB00DE11DF91FBD01CF01112438
:101900000895AA1BBB1B51E107C0AA1FBB1FA61746
:10191000B70710F0A61BB70B881F991F5A95A9F798
:1019200080959095BC01CD01089597FB092E07265F
:101930000AD077FD04D0E5DF06D000201AF47095B8
:1019400061957F4F0895F6F7909581959F4F089583
:1019500097FB092E05260ED057FD04D014D00AD0CF
:10196000001C38F450954095309521953F4F4F4FCE
:101970005F4F0895F6F790958095709561957F4F2C
:101980008F4F9F4F0895A1E21A2EAA1BBB1BFD018A
:101990000DC0AA1FBB1FEE1FFF1FA217B307E4074E
:1019A000F50720F0A21BB30BE40BF50B661F771FA6
:1019B000881F991F1A9469F7609570958095909586
:1019C0009B01AC01BD01CF010895FC018827992737
:1019D000E89421912032E9F3293010F02E30C8F339
:1019E0002B3241F02D3239F4689404C00E94240D4A
:1019F000820F911D219120532A30C0F31EF490953F
:101A000081959F4F0895FB019F01E8944230C4F0F7
:101A10004532B4F44A3029F497FB1EF49095819531
:101A20009F4F642F77270E94810C805D8A330CF0D2
:101A3000895D8193CB010097A1F716F45DE2519384
:101A40001082C9010C94420D7AE0979F902D879FD8
:101A5000802D910D11240895FB019F01423074F0F7
:101A6000453264F4642F77270E94810C805D8A33AD
:101A70000CF0895D8193CB010097A1F71082C90119
:101A80000C94420DDC01FC01672F71917723E1F783
:101A9000329704C07C916D9370836291AE17BF073B
:081AA000C8F30895F894FFCF8C
:00000001FF
